:020000040000FA
:0600000067EF09F0120099
:0A0006000200321300008C0000001D
:1000100002000000301300008A000000020000000F
:100020004CEC05F0FB0EDBCFF3FFDB06F3500009D1
:100030000AE09AEC05F0FA0E05EC06F0F3E1151C67
:10004000F1E1010E01D0000E7BEF05F04CEC05F064
:100050003B0EE12402E3E168E652E16E010EDB6A49
:10006000020EDB6AF90EDBCFF6FFFA0EDBCFF7FFED
:10007000FB0EDBCFF8FF0800F550DF6EDF5002E12A
:100080009FEF04F0250EDF5C02E092EF04F0030E18
:10009000DB6A040EDB6A050EDB6A060EDB6A070EFE
:1000A000DB6AB4EC04F02D0EDF5C0CE02B0EDF5CA1
:1000B00009E0200EDF5C06E0230EDF5C03E0300E7B
:1000C000DF5C1AE1DF50300A14E0130A0FE0030A84
:1000D0000AE00B0A05E0060AE4E1030EDB80E1D743
:1000E000030EDB82DED7030EDB84DBD7030EDB8659
:1000F000D8D7030EDB88D5D72A0EDF5C1BE1B0EC26
:1001000004F0FEEC04F010E0030EDB8008680968E0
:10011000130EDBCF0DF0140EDBCF0EF0F4EC08F075
:10012000040E06C0DBFF03D0130EE7EC04F0B4ECC2
:1001300004F00BD0090EDB6A55EC05F003E0C9ECC6
:1001400005F0FAD7090EE7EC04F0030EDBB0DB98FC
:100150002E0EDF5C1BE1B4EC04F02A0EDF5C0BE139
:10016000B0EC04F0FEEC04F003E1130E39EC05F002
:10017000B4EC04F00BD0090EDB6A55EC05F003E09B
:10018000C9EC05F0FAD7090E39EC05F0680EDF5C12
:1001900007E1B4EC04F0680EDF5C1DE1030E18D03B
:1001A000740EDF5C17E07A0EDF5C14E0480EDF5C53
:1001B00006E0540EDF5C03E05A0EDF5C02E1020E43
:1001C00007D06C0EDF5C03E06A0EDF5C04E1010E19
:1001D0008CEC05F0C9DBDF506E0A01E17FD31E0A0B
:1001E00001E192D1200A01E18FD13F0A01E149D119
:1001F0001A0A01E146D10D0A01E143D1200A01E1C9
:1002000040D13A0A01E13DD1200A01E13AD1260A62
:1002100001E135D10D0A01E132D11A0A01E1D9D04B
:10022000200A4AE0300A1FE0460A0EE0250A01E0F3
:1002300083D3D950F90FE96EFF0EDA20EA6E010E72
:10024000EE5E000EEE5AEE5A9AEC05F0250EE66EC2
:1002500095DB03E1151C01E169D396EC05F001E2A1
:100260006BD3DB2A69D3080EDB6A040EDB5001086E
:1002700006E2040EDB045EEC05F0DB508BDB080EBF
:10028000DB5009E0030EDB50010B05E172DB01E0FE
:100290004DD3080EDB6A64DBEFCFDFFF0EEC06F018
:1002A00003E1151C01E142D396EC05F001E3DB2AE2
:1002B00060DB01E141D33AD3070EDB5002080FE1C6
:1002C000DAEC05F0030EA1EC05F00E0EEECFDBFF2D
:1002D0000F0EEECFDBFF100EEECFDBFF20D0F70EC0
:1002E000DBCF17F0F80EDBCF18F0020E175E000E12
:1002F000185AF70E17C0DBFFF80E18C0DBFF17C047
:10030000E9FF18C0EAFF91EC05F0166A0E0E14C062
:10031000DBFF0F0E15C0DBFF100E16C0DBFF0E0E4D
:10032000DBCFE6FF0F0EDBCFE6FF100EDBCFE6FFE5
:10033000A1EC08F0E552E552E552130E07C0DBFFD1
:10034000140E08C0DBFF060EDB5005E0130ED5ECE3
:1003500005F001E26ADBF9EC05F002E2130E37DB8F
:10036000BCEC05F006E0040ED5EC05F002E2050E4B
:100370002EDB030EDBB005D0FCDA01E0D7D2080E8D
:10038000DB6A090EDB6A0E0EDBCFF6FF0F0EDBCF4A
:10039000F7FF100EDBCFF8FF0800F550DF6EDF50DF
:1003A00014E0FFEC05F011E20EEC06F003E1151C81
:1003B00001E1BCD2BBDB01E3DB2A090EDB2AD95009
:1003C0000E0FE96E000ECBDBE7D7D3DA01E1B4D232
:1003D000ADD2C6DA110EEECFDBFF120EEDCFDBFF92
:1003E000110EDBCFE6FF120EDBCFE6FF93EC08F039
:1003F000E552E552130EF3CFDBFF140EF4CFDBFF13
:10040000060EDB5004E0130ED0DB01E20EDBF9EC4C
:1004100005F002E2130EDBDAAFDB05E0040EC5DB0C
:1004200002E2050ED4DA030EDBB005D0A2DA01E059
:100430007DD2080EDB6A090EDB6A110EDBCFE9FF05
:10044000120EDBCFEAFFEFCFDFFFDF5014E0D7DB88
:1004500012E2E4DB03E1151C01E168D267DB01E392
:10046000DB2A090EDB2A110EDB2ADBCFE9FF120E95
:10047000E8E3DB2AE6D77DDA01E15ED257D2030E4C
:10048000DB8E070EDB0410E195DB040E5ADB0A0E4F
:10049000EECFDBFF0B0EEECFDBFF0C0EEECFDBFF64
:1004A0000D0EEECFDBFF6CD0070EDB5003082CE106
:1004B000030EDBAE0DD0B2DA020E76DAEFCF14F017
:1004C000156A166A176A14AE39D01568166835D0E1
:1004D000F70EDBCF15F0F80EDBCF16F0020E155E2F
:1004E000000E165AF70E15C0DBFFF80E16C0DBFF24
:1004F00015C0E9FF16C0EAFFEFCF14F00A0E14C0D2
:10050000DBFF0B0EDB6A38D0070EDB50020809E177
:10051000030EDBAE04D059DB16AE10D00ED055DB87
:100520000DD0030EDBAE12D079DA020E3DDAF9DA25
:10053000166A176A15AE02D016681768E2DA0C0E52
:1005400016C0DBFF0D0E17C0DBFF1AD0F70EDBCF96
:1005500016F0F80EDBCF17F0020E165E000E175ADB
:10056000F70E16C0DBFFF80E17C0DBFF16C0E9FF61
:1005700017C0EAFFD6DAC5DA0C0EDB6A0D0EDB6AAD
:10058000060EDB5005E1010EF36E050EF3CFDBFF27
:10059000150EDB6A160EDB6AD950370F146E000E8B
:1005A000DA20156E390E14C0DBFF3A0E15C0DBFFE2
:1005B000380EDB6A080EDB6A0A0EAEDADF50780A04
:1005C00012E0200A10E0280A0CE0200A0AE03F0AA4
:1005D00006E00D0A02E0200A08E1020E05D0080E2E
:1005E00003D0080EDF26100E97DA030EDBBE02D012
:1005F000DB92DB94DB50800B24E08ADAD890030E88
:10060000EB50000A08E6000EEE5C000EEE58000EFD
:10061000EE58000EEE5815E213DA0B680C680D6800
:100620000E685BEC08F00A0E02C0DBFF0B0E03C085
:10063000DBFF0C0E04C0DBFF0D0E05C0DBFF2D0E33
:1006400008D0030EDBA202D02B0E03D0DBA408D00F
:10065000200EF36E170EF3CFDBFF150EDB2A02D050
:10066000170EDB6A050EDB5003E1B7D901E189D033
:100670001A0E146E130E156E000E166E070EDBCFDB
:1006800017F0186A196A1A6A17C00BF018C00CF034
:1006900019C00DF01AC00EF0D3D921EC09F0145096
:1006A0000224F36E15500320F46E16500420F86EE9
:1006B000F4CFF7FFF3CFF6FF0800090EF5CFDBFF0D
:1006C000580EDF5C0FE1610EF36E090E7BD90AE371
:1006D000200E146E090EDBCFE7FF1450E75E090E03
:1006E000E7CFDBFF070EDBCF14F0156A166A176A37
:1006F0000FDA14C00BF015C00CF016C00DF017C0C7
:100700000EF0EECF06F0EECF07F0EECF08F0EFCF11
:1007100009F021EC09F009C0EDFF08C0EDFF07C0AA
:10072000EDFF06C0EFFF390EDBCFE9FFDB063A0E27
:10073000DBCFEAFF01E2DB06090EDBCFEFFF150E90
:10074000DB2A4BD995E1030EDBA61DD06F0EDF5CD3
:1007500006E1C1D918E3150EDB285BDA14D0780E58
:10076000DF5C09E0580EDF5C06E0620EDF5C03E050
:10077000420EDF5C08E1020EF36E160EF3CFDBFFD4
:1007800002D0150EDB6A030EDB50100B0EE0040ED8
:10079000DBCF14F0050EDB50D880145406E2060EB1
:1007A000DB5003E1040EDB5034DA95D90AE2050E82
:1007B000DBCFE7FF150EDB50E75E050EE7CFDBFF73
:1007C00002D0050EDB6A040EDBCF14F0160E45D9FD
:1007D000D880145414E2160EDBCFE6FF150EDBCFE3
:1007E000E6FF040EDBCFE6FF050EDB50E552E75CCB
:1007F000E552D880E754E552D880E7545FD9030E1C
:10080000DB50010B0BE1080EDB5008E0B2D801E031
:100810008DD0080EDB50BED8080EDB6A170EDB50F9
:1008200007E088D9170EF1D903E1151C01E17ED04C
:10083000160EDB5016E07ED9300EE66E9FD802E130
:10084000151C74E077D9DFCFE6FF19EC08F0E5520C
:10085000E552E552F4CF15F00001F31C02E1151C3E
:1008600065E0050EDBCF14F0160EDB50D880145473
:1008700009E2050EDBCFE7FF160EDB50E75E050E43
:10088000E7CFDBFF300EE66E050ECBD94FE1390E18
:10089000DB2ADBCFE9FF3A0E01E3DB2ADBCFEAFFFD
:1008A000090EEFCFDBFFDB500EE044D9090EADD9C6
:1008B00002E1151C3BE0390EDB2ADBCFE9FF3A0EE3
:1008C000EDE3DB2AEBD755D831E1160EDBCFE6FF9F
:1008D000080EC3D8E552E7245DD82ED0070EDB50B2
:1008E000030A1CE0010A14E0030A07E07BD9DBCF0E
:1008F000EEFF020EDBCFEDFF1FD0F5D8196A17AE61
:1009000002D0186819682CD8BCD819C0EEFF14D0D2
:10091000EAD817BE186824D8B4D80ED063D9DBCF74
:10092000EFFF0AD07BD905E1151C03E1F368F468F9
:1009300010D0FCD801E3DB2A79D93BEF00F0010E9F
:10094000DBCF14F0020EDBCF15F014C0F3FF15C09F
:10095000F4FF3B0EE15C02E2E16AE552E16ECBD0CE
:1009600029D9020EA1EF05F061D90800F550DF6E1C
:100970001200200EE66E080E11EF06F019EC08F0DA
:10098000E552E552E552F3CF14F0F4CF15F0000133
:10099000F31C1200146E156AD950010F4DD9145072
:1009A000EE261550ED221200185E000E195AF70EB1
:1009B00018C0DBFFF80E19C0DBFF18C0E9FF19C033
:1009C000EAFF1200DBCFF4FFF350F45C1200DB50BF
:1009D000E76E040EE7CFDBFF12000A0EDBCF14F048
:1009E0000B0EDBCF15F00C0EDBCF16F00D0EDBCFB0
:1009F00017F014501510161017101200130EEECF2A
:100A0000DBFF140EEDCFDBFF130EDBCF14F0140E63
:100A1000DBCF15F00001800E15141200F70EDBCFAE
:100A200018F0F80EDBCF19F01200050EDB50E66E61
:100A3000D950130F01D9E552E750EE6EED6A12005E
:100A40000A0EDBCF06F00B0EDBCF07F00C0EDBCF70
:100A500008F00D0EDBCF09F01200DBCFE6FF150E1C
:100A6000DBCFE6FF050EDB50E552E724E552E72435
:100A70001200DB50CED8010EF36E060EF3CFDBFF73
:100A80001200EE50EFCFEAFFE96E16C0EEFF17C07E
:100A9000EEFF18C0EEFF1200D9CFE6FFDACFE6FF77
:100AA000E1CFD9FFE2CFDAFF1200DFCFE6FFE66A3F
:100AB00045EC09F0E552E552F3501200E76E080EDE
:100AC000E7CFDBFF1200EECF14F0EECF15F0EFCF43
:100AD00016F0176A1200050EDBCF14F0150EDB506E
:100AE000D88014541200010EDBCF16F0020EDBCFBB
:100AF00017F0186A1200E552E5CFDAFFE7CFD9FF09
:100B000012000A0E14C0DBFF0B0E15C0DBFF120033
:100B1000D9500A0F1CEF06F0F36E070EF3CFDBFF80
:100B20001200EECF14F0EFCF15F01200010EDB2A09
:100B3000020E1200FC0EDBCFE6FFFD0EDBCFE6FF60
:100B40001200145E000E155AF70E14C0DBFFF80EEB
:100B500015C0DBFF14C0E9FF15C0EAFF1200DA2060
:100B6000EA6EEF2AEECFF6FF000EEF22EECFF7FF90
:100B7000EF22EECFF8FF1200040EDBCFE6FF130EDC
:100B8000DB50E552E75C9ADFDB5004DF060EDB50FA
:100B90001200090EDB500A0DF350DF24D00FE76E70
:100BA000090EE7CFDBFFB4EF04F0DB50F36E050E68
:100BB000E2EF04F0F70EDBCF14F0F80EDBCF15F008
:100BC0001200DFCFE6FFBEEF04F028DF030EECDEFD
:100BD00063EF05F010EC00F0E552E552E552E55206
:100BE00000091200BDDEEE50EFCFEAFFE96E010E04
:100BF0001200130EDB50F36E040EE2EF04F0040E4D
:100C0000DB50F36E090EE2EF04F0DBCFE6FFBEEF40
:100C100004F0E76E050EE7CFDBFF12008BDFE1EF9C
:100C200005F0DBCFE6FF86DFEAEF05F0D950F90FDC
:100C3000E96EFF0EAFEF05F0E96E000EDA20EA6E06
:020C40001200A0
:0E0C4200D9CFE6FFE1CFD9FFE150FD0FE96EFB
:100C5000FF0EDA20EA6EEE50ED1003E0926A936A1E
:100C600002D0946A956AFD0EDBCF8CF0FE0EDBCFCE
:100C70008DF0E552E7CFD9FF1200D9CFE6FFE1CFE3
:100C8000D9FF00018C518D113AE0D950FD0FE96E6A
:100C9000FF0EDA20EA6EEE50ED1002E1010E26D0D2
:100CA000D950FD0FE96EFF0EDA20EA6E010EEE1844
:100CB00004E1ED5002E1020E19D0D950FD0FE96EAA
:100CC000FF0EDA20EA6E020EEE1804E1ED5002E1AA
:100CD000040E0CD0D950FD0FE96EFF0EDA20EA6E3B
:100CE000030EEE1804E1ED5002E1080E806EFC0EDA
:100CF000DBCFE6FF52D8E552F350816E39D0D950A0
:100D0000FD0FE96EFF0EDA20EA6EEE50ED1002E103
:100D1000010E26D0D950FD0FE96EFF0EDA20EA6EE3
:100D2000010EEE1804E1ED5002E1020E19D0D95087
:100D3000FD0FE96EFF0EDA20EA6E020EEE1804E1F6
:100D4000ED5002E1040E0CD0D950FD0FE96EFF0EFC
:100D5000DA20EA6E030EEE1804E1ED5002E1080E0F
:100D6000826EFC0EDBCFE6FF18D8E552F350836E9F
:100D7000E552E7CFD9FF1200D9CFE6FFE150FD0FD2
:100D8000E96EFF0EDA20EA6EEE50ED1002E1F36A32
:100D9000F46AE552E7CFD9FF1200D9CFE6FFE1CFE1
:100DA000D9FF410EF36EFE0EDBCFF4FFF350F45C7F
:100DB0000EE3FE0EDB505A080AE3200E146EFE0E00
:100DC000DBCFE7FF1450E726FE0EE7CFDBFFFE0E7A
:100DD000DB507A0A01E189D0030A01E184D0010ADB
:100DE00001E17FD00F0A01E17AD0010A76E0030A1F
:100DF00072E0010A6EE0070A6AE0010A66E0030A8F
:100E000062E0010A5EE01F0A5AE0010A56E0030AA6
:100E100052E0010A4EE0070A4AE0010A46E0030AEE
:100E200042E0010A3EE00F0A3AE0010A36E0030A16
:100E300032E0010A2EE0070A2AE0010A26E0030A4E
:100E400022E0580A1EE0010A1AE00F0A16E0010A21
:100E500012E0030A3CE0010A0CE0070A20E0010A64
:100E600006E0030A20E0010A43E1C00E3FD0A40ED1
:100E70003DD0990E3BD0930E39D0F80E37D0800E6E
:100E800035D0980E33D0C80E31D0830E2FD0CB0E74
:100E90002DD0A10E2BD0860E29D08E0E27D0B00ECD
:100EA00025D08B0E23D0F90E21D0F10E1FD08A0E43
:100EB0001DD0C70E1BD0EA0E19D0AB0E17D0A30E53
:100EC00015D0CC0E13D0840E11D0AF0E0FD0D20E91
:100ED0000DD0870E0BD0410E09D0AE0E07D0D50E27
:100EE00005D0890E03D0910E01D0B40EF36E01D05F
:0C0EF000F36AF46AE552E7CFD9FF120064
:040EFC00060EF66E7A
:100F0000000EF76E000EF86E00010900F550856FB7
:100F10000900F550866F03E1856701D03DD00900D7
:100F2000F550806F0900F550816F0900F550826F10
:100F300009000900F550E96E0900F550EA6E090054
:100F400009000900F550836F0900F550846F09000E
:100F50000900F6CF87F0F7CF88F0F8CF89F080C08E
:100F6000F6FF81C0F7FF82C0F8FF0001835302E162
:100F7000845307E00900F550EE6E8307F8E284071A
:100F8000F9D787C0F6FF88C0F7FF89C0F8FF0001D6
:0A0F90008507000E865BBFD7120034
:060F9A00D9CFE6FFDACF1B
:100FA000E6FFE1CFD9FFE2CFDAFFE652E652E652A2
:100FB000E652D950FB0F146EFF0EDA20156E14C0E6
:100FC000DEFFDD6EDECFE6FFDDCFE6FFFB0EDBCF23
:100FD000E6FFFC0EDBCFE6FFFD0EDBCFE6FF8AC0AF
:100FE000E6FF8BC0E6FF26EC00F0146E070EE15C16
:100FF00002E2E16AE552E16E1450020EF3CFDBFF2C
:10100000030EF4CFDBFF020EDBCF14F0030EDBCFB9
:1010100015F014C0F3FF15C0F4FF040EE15C02E20A
:10102000E16AE552E16EE552E5CFDAFFE7CFD9FF9D
:021030001200AC
:0E103200D9CFE6FFDACFE6FFE1CFD9FFE2CF5C
:10104000DAFFFB0EDBCF14F0FC0EDBCF15F0000156
:10105000800E15141AE1FB0EDBCFE9FFFC0EDBCF8F
:10106000EAFFEECFF3FFEDCFF4FFEE2A000EEF2202
:10107000F3CFE9FFF4CFEAFFFD0EDBCFEFFFEF5038
:10108000156AF36E15C0F4FF10D0FB0EDB50FE089E
:1010900006E1FD0EDBCFE6FF75EC09F005D0FD0E95
:1010A000DBCFE6FF96EC09F0E552E552E5CFDAFF3B
:0610B000E7CFD9FF12009A
:0A10B60006500B02F3CF02F0F4CF56
:1010C00003F00C02F3500326000EF420046E0650C9
:1010D0000D02F3500426000EF420056E06500E0299
:1010E000F350052607500B02F3500326F450042258
:1010F000000E052207500C02F3500426F45005227E
:1011000007500D02F350052608500B02F350042639
:10111000F450052208500C02F350052609500B022A
:06112000F3500526120049
:0A112600FE0EE3CFE9FFFF0EE3CF5A
:10113000EAFFF36AF46AEE5203E0F34AF42AFBD7BB
:101140001200FF0EE3CFF8FFE552FF0EE3CFF7FFEB
:10115000E552FF0EE3CFF6FFE552E66AE66AE66A7D
:101160000900F55209E0FD0EE32A05E1FE0EE32A2F
:1011700002E1FF0EE32AF4D7FD0EE3CF07F0FE0EE7
:0C118000E3CF08F0FF0EE3CF09F01200EF
:04118C00000EE66EFD
:10119000E66A21EC06F0E552E552720EE66E030EA9
:1011A000E66EE66A3DEC06F0E552E552E552825005
:1011B000E66EE66A9450E66EE66A8350E66EE66A8C
:1011C000060E146E130E156E166A14C0E6FF15C0D7
:1011D000E6FF16C0E6FFCDEC07F0176E090EE15EE4
:0811E00017500000FED71200B9
:0811E80009C013F008C012F069
:1011F00008500D02F4CF07F0F3CF06F009500E02AD
:10120000F4CF09F0F3CF08F00D02F3500726F450A5
:101210000822E86A092212500E02F3500726F45001
:101220000822E86A09220EAE1AEF09F01250085E91
:101230001350095A13AE000C0D50085E0E50095A97
:02124000000CA0
:0E124200056A046A036A026A200EE76ED890FD
:1012500006360736083609360236033604360536B2
:101260000B50025C0C5003580D5004580E5005589A
:1012700009E30B50025E0C50035A0D50045A0E50F5
:0A128000055A062AE72EE4D71200F3
:06128A00F36AF46AFF0E96
:10129000E124E96EFF0EE220EA6EED6607D02F0E24
:0E12A000EF6404D03A0EEF6001D0F32A120082
:0212AE00800EB0
:1012B000F36E00EE00F00F0E01D81200EA6002D0CB
:0E12C000EE6AFCD7F350E9601200EE6AFCD72C
:0212CE001EEE12
:1012D00000F02EEE00F0F86A019C7EEC07F097EC2F
:0A12E00009F0C6EC08F0FBD712007D
:0612EA00FF0EE350ACBA58
:1012F00004D0AF6AAB8EAC8A949CACA2FED7AD6E24
:06130000F36EF46A120016
:0A1306004E45573220504F5254203C
:0A13100025622025622025620A00F4
:06131A003031323334359E
:0B13200036373839616263646566008F
:02132C001200AD
:02132E001200AB
:02133000FEFFBE
:021332000000B9
:00000001FF
