:020000040000FA
:060000004EEF02F01200B9
:0A0006000200BE0400008E0000009E
:1000100004000000BA0400008A0000000400000090
:10002000D9CFE6FFE1CFD9FFE150FD0FE96EFF0E1A
:10003000DA20EA6EEE50ED1003E0926A936A02D085
:10004000946A956AFD0EDBCF8AF0FE0EDBCF8BF053
:10005000E552E7CFD9FF1200D9CFE6FFE1CFD9FFB4
:1000600000018A518B113AE0D950FD0FE96EFF0E65
:10007000DA20EA6EEE50ED1002E1010E26D0D950E2
:10008000FD0FE96EFF0EDA20EA6E010EEE1804E1B4
:10009000ED5002E1020E19D0D950FD0FE96EFF0EAE
:1000A000DA20EA6E020EEE1804E1ED5002E1040ED1
:1000B0000CD0D950FD0FE96EFF0EDA20EA6E030E68
:1000C000EE1804E1ED5002E1080E806EFC0EDBCF6D
:1000D000E6FF9BD8E552F350816E39D0D950FD0F21
:1000E000E96EFF0EDA20EA6EEE50ED1002E1010E2D
:1000F00026D0D950FD0FE96EFF0EDA20EA6E010E10
:10010000EE1804E1ED5002E1020E19D0D950FD0FB6
:10011000E96EFF0EDA20EA6E020EEE1804E1ED50F1
:1001200002E1040E0CD0D950FD0FE96EFF0EDA206B
:10013000EA6E030EEE1804E1ED5002E1080E826E45
:10014000FC0EDBCFE6FF61D8E552F350836EE5523B
:10015000E7CFD9FF1200D9CFE6FFE1CFD9FFE150B9
:10016000FB0FE96EFF0EDA20EA6EEE50ED1003E1B0
:10017000F36AF46A46D0010EE76EFB0EDBCFE9FFAF
:10018000FC0EDBCFEAFFE750E926000EEA22EF5033
:10019000E66E010EE66EE66A5FDFE552E552E55275
:1001A000020EE66E27EC02F0E552200EE66E010E1E
:1001B000E66EE66A51DFE552E552E552030EE76E60
:1001C000FB0EDBCFE9FFFC0EDBCFEAFFE750E926B1
:1001D000000EEA22EF50E66E030EE66EE66A3CDFA2
:1001E000E552E552E552140EE66E27EC02F0E552B8
:1001F000200EE66E030EE66EE66A2EDFE552E5524D
:10020000E552E552E7CFD9FF1200D9CFE6FFE1CFA3
:10021000D9FF410EF36EFE0EDBCFF4FFF350F45C1A
:100220000EE3FE0EDB505A080AE3200E046EFE0EAB
:10023000DBCFE7FF0450E726FE0EE7CFDBFFFE0E25
:10024000DB507A0A01E193D0030A01E18ED0010A62
:1002500001E189D00F0A01E184D0010A01E17FD0D8
:10026000030A01E17AD0010A76E0070A72E0010A86
:100270006EE0030A6AE0010A66E01F0A62E0010A12
:100280005EE0030A5AE0010A56E0070A52E0010A5A
:100290004EE0030A4AE0010A46E00F0A42E0010A82
:1002A0003EE0030A3AE0010A36E0070A32E0010ABA
:1002B0002EE0030A2AE0580A26E0010A22E00F0A8B
:1002C0001EE0010A1AE0030A16E0010A12E0070A1A
:1002D0000EE0010A0AE0030A28E0010A04E0100A1D
:1002E00049E1F36848D0C00E43D0A40E41D0B00E0F
:1002F0003FD0990E3DD0D20E3BD0930E39D0F80EA0
:1003000037D0800E35D0980E33D0880E31D0830E82
:100310002FD0C60E2DD0A10E2BD0860E29D08E0E3A
:1003200027D0900E25D08B0E23D0F90E21D0F10EC0
:100330001FD08A0E1DD0C70E1BD0EA0E19D0AB0EEF
:1003400017D0A30E15D08C0E13D0840E11D0AF0E83
:100350000FD0920E0DD0870E0BD0C10E09D0E30E38
:1003600007D0D50E05D0890E03D0910E01D0B40E62
:10037000F36E01D0F36AF46AE552E7CFD9FF1200B9
:10038000060EF66E000EF76E000EF86E0001090004
:10039000F550856F0900F550866F03E1856701D040
:1003A0003DD00900F550806F0900F550816F0900BC
:1003B000F550826F09000900F550E96E0900F5500B
:1003C000EA6E090009000900F550836F0900F55035
:1003D000846F09000900F6CF87F0F7CF88F0F8CFD7
:1003E00089F080C0F6FF81C0F7FF82C0F8FF0001EE
:1003F000835302E1845307E00900F550EE6E830752
:10040000F8E28407F9D787C0F6FF88C0F7FF89C0F4
:0E041000F8FF00018507000E865BBFD71200C3
:02041E00000ECE
:10042000E66EE66A10EC00F0E552E5528E0EE66EDE
:10043000000EE66E040EE66EE66AABEC00F0E552E6
:0E044000E552E552E552F2D70000FED7120059
:02044E00FF0E9F
:10045000E350036EEF0E01D0F30EE76EE72E2EEFA2
:1004600002F00C0E026EE76AE72E34EF02F0022E65
:0C04700033EF02F0032E2CEF02F012001C
:04047C00800EF36E8D
:1004800000EE00F00F0E01D81200EA6002D0EE6A12
:0C049000FCD7F350E9601200EE6AFCD7C4
:04049C001EEE00F060
:1004A0002EEE00F0F86A019CC0EC01F05CEC02F06A
:0804B0000FEC02F0FBD7120073
:0204B800120030
:0404BA00000000003E
:0204BE00636F6A
:0204C00064795D
:00000001FF
